:100000000C94A8000C94C5000C94C5000C94C50079
:100010000C94C5000C94FF000C94C5000C94C50012
:100020000C94C5000C94C5000C94C5000C94C5003C
:100030000C94C5000C94C5000C94C5000C94C5002C
:100040000C94E60B0C94C5000C94C5000C94C500F0
:100050000C94CE0A0C948C0A0C94C5000C94C50028
:100060000C94C5000C94C5000C94C5000C94C500FC
:100070000C94C5000C94C5000C94C50047616D65D7
:1000800020706175736564004368656174204D6F0D
:1000900064653A2044697361626C65640044696117
:1000A0006D6F6E647320436F6C6C65637465643A46
:1000B000202564206F66202564004C6576656C3AC7
:1000C000202564005072657373206120627574741A
:1000D0006F6E20746F207374617274206167616940
:1000E0006E0047414D45204F5645520043535345FE
:1000F000323031302070726F6A656374206279200B
:1001000057696C6C69616D20536177796572202D38
:10011000203436393633363038004469616D6F6EBD
:1001200064204D696E6572730044697361626C6529
:100130006400456E61626C656420002575001B5B80
:100140004B001B5B324A001B5B25643B2564480067
:1001500011241FBECFEFD8E0DEBFCDBF13E0A0E07B
:10016000B1E0E4EFFEE102C005900D92A834B107C2
:10017000D9F725E0A8E4B3E001C01D92A038B2078A
:10018000E1F70E9476090C94780F0C940000E8E6E1
:10019000F0E08081826080838BB382608BBBECE671
:1001A000F0E080818F6080831092480308958091F1
:1001B0004803181614F5809149036FB7F89491E03D
:1001C00009C0F901E75BFC4F4081F901E85BFC4F96
:1001D00040839F5F292F30E040914803042E000C9C
:1001E000550B241735076CF3909148039150909369
:1001F000480366231CF4789408958FEF08951F92A6
:100200000F920FB60F9211242F933F934F938F931A
:100210009F93EF93FF9343B14F7080E026C090917E
:10022000480394300CF5242F30E0082E02C0359599
:1002300027950A94E2F720FF17C020914D0330E084
:10024000082E02C0359527950A94E2F720FD0CC0D0
:10025000E091480391E09E0F909348030E2E000C0E
:10026000FF0BE75BFC4F80838F5F8430C0F24093CD
:100270004D03FF91EF919F918F914F913F912F915E
:100280000F900FBE0F901F9018950E949006089532
:100290001F93CF93DF93CDB7DEB728970FB6F894AF
:1002A000DEBF0FBECDBF0E94900610E029C0E12F37
:1002B000F0E0E15FFD4F908190FF02C02FE001C0B0
:1002C00020EF87E013C0992344F4E1E0F0E0EC0F65
:1002D000FD1FE80FF11D208307C0E1E0F0E0EC0F07
:1002E000FD1FE80FF11D1082990F81508111EBCF96
:1002F0001982BE016F5F7F4F812F0E9473061F5FBF
:100300001031A8F228960FB6F894DEBF0FBECDBF0D
:10031000DF91CF911F910895803138F5683028F52D
:10032000413091F0423091F0473091F09DEF940FC1
:10033000923080F0453081F0463081F0483081F0D5
:10034000493081F443E10FC04FE00DC041E00BC0E4
:1003500041E109C04FED07C040EF05C045E303C0D0
:100360004CE301C040E00E945406089510926104DD
:100370001092580391E09093650410926204909358
:1003800060041092DA031092DB038F5F8093DF0327
:1003900090914E03690F60934E031092DD03482F36
:1003A000417080FD04C084E08093570303C083E064
:1003B000809357031092DE0320E030E051C04423C5
:1003C000E1F0E7E0F0E0E81BF90BE295F295F07F51
:1003D000FE27E07FFE27E354FD4FE20FF31F50811D
:1003E000F901EE0FFF1FEE0FFF1FEE0FFF1FE75A81
:1003F000FC4FE80FF91F50831DC041111BC0E7E0FF
:10040000F0E0E81BF90BE295F295F07FFE27E07F24
:10041000FE27E95CFD4FE20FF31F5081F901EE0F5B
:10042000FF1FEE0FFF1FEE0FFF1FE75AFC4FE80FF5
:10043000F91F5083F901EE0FFF1FEE0FFF1FEE0FA4
:10044000FF1FE052FC4FE80FF91F1082019602C017
:1004500080E090E0883091050CF4B1CF2F5F3F4FE2
:1004600020313105ACF308950E94640B66E070E022
:100470008AE090E00E94530B8091DF031F928F93DC
:100480008AEB90E09F938F930E948A0C68E070E063
:100490008AE090E00E94530B809157031F928F9344
:1004A0008091DD031F928F938DE990E09F938F934E
:1004B0000E948A0C6AE070E08AE090E00E94530B90
:1004C00088E890E09F938F930E948A0C60E070E030
:1004D00080E090E00E94530B8DB79EB70C960FB64C
:1004E000F8949EBF0FBE8DBF0895803120F4683010
:1004F00020F080E0089580E0089581E00895CF9392
:10050000DF93C82FD62F0E947502882371F0EC2F3D
:10051000F0E0EE0FFF1FEE0FFF1FEE0FFF1FE75A79
:10052000FC4FED0FF11D808101C084E0DF91CF9180
:100530000895CF93DF93D0916204C09165046D2F2D
:100540008C2F0E9475028823C9F080916004882353
:1005500051F06D2F8C2F0E947F02482F6D2F8C2F12
:100560000E948C0105C042E06D2F8C2F0E948C01EF
:100570009091600481E0891B80936004DF91CF91AA
:1005800008959091DB0381E0891B8093DB030E9437
:10059000920B0895E82FF0E0EE0FFF1FEE0FFF1F04
:1005A000EE0FFF1FE75AFC4FE60FF11D10828091FE
:1005B000DD038F5F8093DD030E94760B0895FF9229
:1005C0000F931F93CF93DF938091DF03982F917048
:1005D00080FD2BC031C0FE01EE0FFF1FE954FD4F1F
:1005E000F0800181602F8F2D0E947F028530D9F429
:1005F0008091610490E08F1991099C0122F42227D7
:100600003327281B390B422F8091580390E0801B21
:1006100091099C0122F422273327281B390B240F30
:10062000211708F4122F219603C0C0E0D0E015E096
:10063000C330D10584F234C0992361F115E030C094
:10064000FE01EE0FFF1FE15DFD4FF0800181602F85
:100650008F2D0E947F028530D9F48091610490E053
:100660008F1991099C0122F422273327281B390B6B
:10067000422F8091580390E0801B91099C0122F445
:1006800022273327281B390B240F211708F4122F98
:10069000219603C0C0E0D0E015E0C430D10584F25B
:1006A000143059F0133071F0123089F01130A1F488
:1006B0006DE770E080E090E012C06EEE72E080E0E6
:1006C00090E00DC064EF71E080E090E008C06AEF58
:1006D00070E080E090E003C060E070E0CB01DF916B
:1006E000CF911F910F91FF9008958091DA038111AE
:1006F0001BC0E0916104E0936404809158038093EF
:10070000D903F0E0EE0FFF1FEE0FFF1FEE0FFF1FEC
:10071000E75AFC4FE80FF11D88E0808381E0809369
:10072000DA038093DC03089580E008958091DC0370
:10073000882341F040E06091D903809164040E94D5
:100740008C0107C048E06091D903809164040E9445
:100750008C019091DC0381E0891B8093DC03089578
:100760000F931F93CF93DF9300E010E01EC0F801BA
:10077000EE0FFF1FE15EFD4FC08180916304C80F43
:10078000D18180915603D80F6D2F8C2F0E94750256
:10079000882349F06D2F8C2F0E947F02482F6D2FE8
:1007A0008C2F0E948C010F5F1F4F08301105FCF247
:1007B000DF91CF911F910F91089550916404609142
:1007C0006104561309C09091D9038091580398177A
:1007D000E9F080E090E015C080E090E012C0FC01FC
:1007E000EE0FFF1FE15EFD4F2081250F418130910B
:1007F000D903340F621304C020915803321741F01B
:100800000196883091055CF380E0089581E00895B9
:1008100081E008956CE070E08AE090E00E94530B64
:100820008CE790E09F938F930E948A0C60E070E0C9
:1008300080E090E00E94530B0E94D60B0F900F9027
:100840000895CF92DF92EF92FF926B017C016CE0F2
:1008500070E08AE090E00E94530B0E946D0B60E014
:1008600070E080E090E00E94530BC701B6010E9447
:10087000CD0BFF90EF90DF90CF9008958091DE0335
:100880000895EF92FF920F931F93CF93DF93F82E6B
:10089000E62EE82FF0E0EE0FFF1FEE0FFF1FEE0F2A
:1008A000FF1FE052FC4FE60FF11D81E080838F2D8A
:1008B0000E947F02C82F482F6E2D8F2D0E948C0121
:1008C000CC2351F1C53059F1CA3089F52BC0F8015C
:1008D000EE0FFF1FE15EFD4FC081CF0DD181DE0D18
:1008E0006D2F8C2F0E947502882399F0EC2FF0E079
:1008F000EE0FFF1FEE0FFF1FEE0FFF1FE052FC4F2A
:10090000ED0FF11D8081811104C06D2F8C2F0E948D
:1009100041040F5F1F4F08C000E010E005C000E079
:1009200010E002C000E010E00830110584F2DF9111
:10093000CF911F910F91FF90EF9008950F931F9308
:10094000CF93DF930E94450100E010E00EC046E027
:100950006C2F802F0E948C01219602C0C0E0D0E055
:10096000C830D105A4F30F5F1F4F00311105B4F358
:1009700060915803809161040E94410441E06091BC
:100980005803809161040E948C0142E060916204EE
:10099000809165040E948C01DF91CF911F910F918E
:1009A00008950E94B6010E949E040E943402089598
:1009B0006091DD038091DF030E94D10408950F93BD
:1009C0001F93CF93DF93C82FD62F00915803109118
:1009D0006104602F812F0E947F02482F602F812F9A
:1009E0000E948C010091620410916504602F812F98
:1009F0000E947F02482F602F812F0E948C016091FE
:100A00005803809161040E947F028A30C9F4C1308A
:100A1000B9F4D11115C08091DF03982F917080FF38
:100A200007C08091DD03833019F40E94D80408C008
:100A3000911106C08091DD03843011F40E94D80426
:100A4000109158031D0F009161040C0F612F802F2E
:100A50000E947F02853031F0882321F0883011F028
:100A60008A3031F4009361041093580311E001C0FF
:100A700010E080916104C80FC09365046091580331
:100A8000D60FD093620441E00E948C01D0915803AC
:100A9000C09161046D2F8C2F0E947F02853021F45C
:100AA0006D2F8C2F0E94CA0281E0809360040E9407
:100AB0009902812FDF91CF911F910F910895CF93CC
:100AC000DF93D0916204C09165046D2F8C2F0E943A
:100AD0007F029091DB039923B1F0833011F08730CE
:100AE00081F5EC2FF0E0EE0FFF1FEE0FFF1FEE0F72
:100AF000FF1FE75AFC4FED0FF11D10826D2F8C2F59
:100B00000E9441041EC08330E1F48C2F90E02D2F11
:100B100030E0880F991F880F991F880F991FFC01DB
:100B2000E75AFC4FE20FF31F47E0408380529C4F8F
:100B3000FC01E20FF31F21E020836D2F8C2F0E9418
:100B40008C01DF91CF9108950F931F93CF93DF9383
:100B500080916404E82FF0E06091D903EE0FFF1F4D
:100B6000EE0FFF1FEE0FFF1FE75AFC4FE60FF11DC0
:100B7000108240E00E948C0100E010E035C0F801D6
:100B8000EE0FFF1FE15EFD4FC08180916404C80F2E
:100B9000D1818091D903D80F6D2F8C2F0E947502BF
:100BA000882301F16D2F8C2F0E947F02833021F06A
:100BB000873011F08A3089F4EC2FF0E0EE0FFF1F40
:100BC000EE0FFF1FEE0FFF1FE75AFC4FED0FF11D59
:100BD00010826D2F8C2F0E94410449E06D2F8C2FC5
:100BE0000E948C010F5F1F4F0830110544F20E94D4
:100BF000DD03882319F081E08093DE031092DA038D
:100C000080916404809363048091D9038093560398
:100C1000DF91CF911F910F910895ECE7F0E0808173
:100C200080648083EAE7F0E08081876880830895AC
:100C30008770ECE7F0E09081987F892B8083EAE76A
:100C4000F0E080818064808380917A0086FDFCCF13
:100C500080917800909179009250089580E80E94E8
:100C6000210B08950F931F93CF93DF938C0180E0A6
:100C70000E944D0BD0E011C0F80180E1D89FE00D3B
:100C8000F11D1124EC0FF11D80810E944D0BCF5FEF
:100C900001C0C0E0C03180F3DF5FD830D0F3DF9116
:100CA000CF911F910F9108951F93CF93DF938031C0
:100CB000B0F46830A0F4142FC62FD82F81E00E9422
:100CC0004D0B6C2F677080E1689F900111248D2F70
:100CD0008F70822B0E944D0B812F0E944D0BDF9154
:100CE000CF911F9108950F931F93CF938031A0F45C
:100CF0008B01C82F83E00E944D0B8C2F8F700E94B8
:100D00004D0BC0E007C0F801EC0FF11D80810E947F
:100D10004D0BCF5FC830B8F3CF911F910F9108955D
:100D20008FE00E944D0B089580914F03811105C003
:100D300080E891E00E94320604C080E091E00E94C9
:100D4000320690914F0381E0891B80934F030895F1
:100D50000E942E060E94C70040E060E07BE480E035
:100D600090E00E94350A0E94B50B0E940D0678940F
:100D700008950E94640B6AE070E08AE090E00E94AF
:100D8000530B8AE191E09F938F930E948A0C6CE051
:100D900070E08AE090E00E94530B8CEE90E09F930D
:100DA0008F930E948A0C0E9448010F900F900F9021
:100DB0000F900E94800A882339F080917A059091E3
:100DC0007B050E944C0C01C08FEF833731F08335D7
:100DD00021F00E94D7008F3F61F308950E94640BB9
:100DE00060E080E00E94D1040E94D7000E94870A40
:100DF00008952F923F924F925F926F927F928F92BF
:100E00009F92AF92BF92CF92DF92EF92FF920F9399
:100E10001F93CF93DF93CDB7DEB76A970FB6F894E1
:100E2000DEBF0FBECDBF0E94D60B69837A838B8352
:100E30009C830E94D60B69877A878B879C870E9448
:100E4000D60B6D837E838F839887212C312C00E015
:100E500010E01A8E198E1D8A1E8A1F8A188EC12CC8
:100E6000D12C7601812C912C5401DFC10E94D70036
:100E7000782E0E94800A882339F080917A0590911B
:100E80007B050E944C0C01C08FEF498D5A8D493C67
:100E90005105BCF0093C1105A4F061E080E00E941E
:100EA000DF04898F380E60E081E00E94DF04380E95
:100EB000598D5111D1C061E080E00E94DF04380EED
:100EC000CBC0A98DBA8DA833BF4FBCF4093C110526
:100ED000A4F061E080E00E94DF04898F380E60E0BA
:100EE0008FEF0E94DF04380E398D3111B5C061E0FB
:100EF00080E00E94DF04380EAFC0498D5A8D483320
:100F00005F4FC4F40833AFEF1A07A4F46FEF80E02B
:100F10000E94DF04898F380E60E08FEF0E94DF04AB
:100F2000380EB98DB11198C06FEF80E00E94DF04D8
:100F3000380E92C0298D3A8D293C3105C4F0083312
:100F40003FEF1307A4F46FEF80E00E94DF04898F66
:100F5000380E60E081E00E94DF04380E498D4111B7
:100F60007BC06FEF80E00E94DF04380E75C07720F1
:100F700049F0A98DBA8DA93CB10524F4843611F04D
:100F8000843431F460E081E00E94DF04380E64C0F4
:100F9000B1E07B1641F008332FEF120724F08337BE
:100FA00011F0833531F46FEF80E00E94DF04380EDA
:100FB00053C032E0731639F0093C110524F4873729
:100FC00011F0873531F461E080E00E94DF04380ED3
:100FD00043C043E0741649F0A98DBA8DA833BF4FC2
:100FE00024F0813611F0813431F460E08FEF0E94FB
:100FF000DF04380E31C0853611F0853419F40E94B3
:101000005F052AC0833611F0833419F40E94C102AF
:1010100023C08032A9F40E9475038823E9F00E945E
:10102000D60B4B015C018EE591E0A0E0B0E0898B2E
:101030009A8BAB8BBC8B1D861E861F86188A0CC0B4
:10104000803711F0803541F40E940A046D8B7E8B4D
:101050008F8B988F222423940E94D60B2B013C0166
:1010600089819A81AB81BC818C509E4FAF4FBF4F1D
:10107000481659066A067B0630F00E94990249829A
:101080005A826B827C820E94DF02611571058105A4
:10109000910519F40E94250A13C029853A854B85CC
:1010A0005C85260F371F481F591F421653066406DA
:1010B000750630F00E94150A49865A866B867C8632
:1010C00081149104A104B10409F447C00E94DD0316
:1010D0000E942B0AD501C4018053984FAF4FBF4FD8
:1010E000481659066A067B0668F00E94A4050E940D
:1010F000D60B6B017C01812C912C54011D861E8620
:101100001F86188A8D859E85AF85B8890097A105B1
:10111000B10569F029893A894B895C89820F931F4F
:10112000A41FB51F481659066A067B06B0F00E9438
:101130009603882361F089899A89AB89BC898B548D
:101140009109A109B109898B9A8BAB8BBC8B0E9449
:10115000D60B6D877E878F87988BC114D104E104ED
:10116000F10481F0D701C6018C509E4FAF4FBF4FA5
:10117000481659066A067B0628F00E94B003C12C67
:10118000D12C76018D819E81AF81B88588539F4F88
:10119000AF4FBF4F481659066A067B0680F081E0C4
:1011A0000E9418069A8F898F80E00E9418068C0191
:1011B0000E94D60B6D837E838F83988704C000E0E6
:1011C00010E01A8E198E93E6931520F0832D0E945D
:1011D000E70904C083E60E94E70900C021101EC091
:1011E0000E943E04882309F441CE18C00E94800A60
:1011F000882339F080917A0590917B050E944C0CF0
:1012000001C08FEF803711F0803541F46D897E8900
:101210008F89988D0E942104212C00C0222029F062
:101220000E943E04882311F300C00E943E048823DC
:10123000A9F26A960FB6F894DEBF0FBECDBFDF915C
:10124000CF911F910F91FF90EF90DF90CF90BF90C3
:10125000AF909F908F907F906F905F904F903F9056
:101260002F900895CF92DF92EF92FF920F931F93EA
:101270006EE070E08AE090E00E94530B82EE90E016
:101280009F938F930E948A0C6FE070E08AE090E059
:101290000E94530B84EC90E09F938F930E948A0CE2
:1012A0000F900F900F900F90C12CD12C760113C08E
:1012B0000E94D60B9701860108511C4F2F4F3F4FBC
:1012C000601771078207930730F00E9494060E940E
:1012D000D60B6B017C010E94D7008F3F49F31F9111
:1012E0000F91FF90EF90DF90CF9008950E94A80695
:1012F0000E94B9060E94EE060E94F9060E94320979
:10130000F9CFCF93C82F8A3019F48DE00E9481095C
:101310009FB7907802C0992329F1809167048F3F8D
:10132000D1F3F894E091660481E08E0F8093660417
:10133000F0E0E859FB4FC083809167048F5F809392
:101340006704809166048F3F11F410926604E1EC0B
:10135000F0E0808180628083992339F0789480E086
:1013600090E005C081E090E002C080E090E0CF9185
:101370000895809179058823E1F32FB72078F894B8
:10138000809167053091790590E0831B91095AF4AB
:10139000E091670580917905F0E0E81BF109E858D4
:1013A000FA4F80810AC0E091670580917905F0E0ED
:1013B000E81BF109E859FA4F808190917905915025
:1013C00090937905222309F0789490E00895EDEC4C
:1013D0008E9FE12D1124E695E695E6952E2F220F9E
:1013E000922F990F990F920F891B982F809150037C
:1013F00081110AC08BB18B7F8BB9E92FF0E0E35CE0
:10140000FC4F808188B90AC0EE2341F08BB1846023
:101410008BB9F0E0E35CFC4F808188B99091500378
:1014200081E0891B80935003089590910E0281E022
:10143000891B80930E02882321F08BB188608BB9C1
:1014400008958BB1877F8BB9089510920E028BB1EE
:10145000877F8BB90895882321F08BB180618BB988
:1014600008958BB18F7E8BB9089510926604109207
:1014700067041092670510927905109278054093E1
:101480005103DC01CB01880F991FAA1FBB1F880FD6
:10149000991FAA1FBB1F9C01AD01220F331F441FC0
:1014A000551F60E072E18AE790E00E940B0CBA01E0
:1014B000A9014F5F5F4F6F4F7F4FDB01CA011AF4E5
:1014C0000196A11DB11DB595A79597958795019793
:1014D0009093C5008093C400E1ECF0E088E1808344
:1014E000808180688083EAE7F5E080E092E0938382
:1014F0008283918380838FEF87B98CEF8AB90895B7
:101500009091790581E0911101C080E008951092D9
:1015100067051092790508951F920F920FB60F92EA
:1015200011242F938F939F93EF93FF9380916704E0
:10153000882329F1809166042091670490E0821B42
:1015400091095AF4E091660480916704F0E0E81B89
:10155000F109E959FA4F90810AC0E091660480913F
:101560006704F0E0E81BF109E859FB4F9081809196
:1015700067048150809367049093C60005C0E1EC36
:10158000F0E080818F7D8083FF91EF919F918F911B
:101590002F910F900FBE0F901F9018951F920F92D2
:1015A0000FB60F9211242F933F934F935F936F9336
:1015B0007F938F939F93AF93BF93CF93EF93FF93BB
:1015C000C091C60080915103882349F0809167043F
:1015D0008F3F29F060E070E08C2F0E94810980919C
:1015E0007905803120F081E08093780518C0CD30F6
:1015F00009F4CAE0E091670581E08E0F80936705EA
:10160000F0E0E859FA4FC083809179058F5F8093AD
:10161000790580916705803111F410926705FF917B
:10162000EF91CF91BF91AF919F918F917F916F91EA
:101630005F914F913F912F910F900FBE0F901F9090
:10164000189594B1906B94B995B1906195B990E566
:101650009CBD883021F0803211F0823019F491E085
:101660009DBD01C01DBC803269F028F4883071F046
:10167000803161F00EC0803429F0803851F48CB58F
:1016800081608CBD8CB582608CBD03C08CB58160DF
:101690008CBD85B18F7E85B908958EBD0DB407FED2
:1016A000FDCF8EB508959F938F937F936F9387E4BB
:1016B00091E09F938F930E948A0C0F900F900F9050
:1016C0000F900F900F90089582E491E09F938F9375
:1016D0000E948A0C0F900F9008958EE391E09F93E3
:1016E0008F930E948A0C0F900F900895CF93C82F6C
:1016F00068E070E08EE190E00E94530B1F92CF9360
:101700008BE391E09F938F930E948A0C60E070E0DE
:1017100080E090E00E94530B0F900F900F900F907D
:10172000CF910895CF93C82F6AE070E086E190E0F2
:101730000E94530BCC2349F082E391E09F938F9357
:101740000E948A0C0F900F9008C089E291E09F934D
:101750008F930E948A0C0F900F9060E070E080E001
:1017600090E00E94530BCF91089510925203109273
:101770005303109254031092550316BC8CE787BD97
:1017800082E084BD83E085BDEEE6F0E0808182608A
:10179000808385B3827085BB0895609352037093F4
:1017A0005303809354039093550308958FB7282FC4
:1017B0002078F89460915203709153038091540300
:1017C00090915503222309F0789408951F920F9267
:1017D0000FB60F9211248F939F93AF93BF93809175
:1017E000520390915303A0915403B0915503019675
:1017F000A11DB11D8093520390935303A0935403F2
:10180000B0935503BF91AF919F918F910F900FBEF1
:101810000F901F901895052E97FB1EF400940E94C0
:10182000220C57FD07D00E942A0C07FC03D04EF46F
:101830000C94220C50954095309521953F4F4F4F79
:101840005F4F089590958095709561957F4F8F4F6C
:101850009F4F0895A1E21A2EAA1BBB1BFD010DC0CC
:10186000AA1FBB1FEE1FFF1FA217B307E407F50750
:1018700020F0A21BB30BE40BF50B661F771F881F2C
:10188000991F1A9469F760957095809590959B01C2
:10189000AC01BD01CF010895CF93DF93EC012B8103
:1018A00020FF33C026FF0AC02F7B2B838E819F81B0
:1018B00001969F838E838A8190E029C022FF0FC00A
:1018C000E881F9818081082E000C990B009719F4AA
:1018D00020622B831AC03196F983E8830EC0EA8513
:1018E000FB85099597FF09C02B81019611F080E2D5
:1018F00001C080E1822B8B8308C02E813F812F5F46
:101900003F4F3F832E83992702C08FEF9FEFDF91D8
:10191000CF910895A0E0B0E0E0E9FCE00C944F0F17
:10192000AE01495F5F4FDA016D917D91AD010AE72C
:1019300015E0F80182819381DC0113962C911397B5
:10194000286013962C930E94B00CD8011296ED914A
:10195000FC9113972381277F2383E4E00C946B0F82
:10196000ABE0B0E0E6EBFCE00C94410F6C017B01D6
:101970008A01FC0117821682838181FFCCC1CE01CE
:1019800001963C01F6019381F70193FD859193FF48
:1019900081917F01882309F4BAC1853239F493FD1E
:1019A000859193FF81917F01853229F4B60190E002
:1019B0000E94A70EE7CF912C212C312CFFE1F315CB
:1019C000D8F08B3279F038F4803279F08332A1F498
:1019D000232D20611DC08D3261F0803369F4232DE9
:1019E000216016C0832D8260382EE32DE4603E2EE8
:1019F0002AC0F32DF8601DC037FC2DC020ED280F44
:101A00002A3040F08E32B9F436FC81C1232D206497
:101A1000322E19C036FE06C08AE0989E200D112491
:101A2000922E11C0EAE02E9E200D1124222EF32DBD
:101A3000F0623F2E08C08C3621F4832D8068382E4A
:101A400002C0883641F4F70193FD859193FF81919F
:101A50007F018111B3CF982F9F7D9554933028F447
:101A60000C5F1F4F9FE399830DC0833631F083379E
:101A700071F0833509F059C021C0F8018081898354
:101A80000E5F1F4F88248394912C530113C02801AB
:101A9000F2E04F0E511CF801A080B18036FE03C069
:101AA000692D70E002C06FEF7FEFC5010E949C0EB0
:101AB0004C018201F32DFF773F2E16C0280122E052
:101AC000420E511CF801A080B18036FE03C0692D82
:101AD00070E002C06FEF7FEFC5010E94910E4C01D4
:101AE000F32DF0683F2E820133FC1BC0822D90E065
:101AF00088169906B0F4B60180E290E00E94A70E25
:101B00002A94F4CFF50137FC859137FE81915F016E
:101B1000B60190E00E94A70E21102A9421E0821ABB
:101B200091088114910471F7E8C0843611F0893668
:101B300041F5F80137FE07C0608171818281938190
:101B40000C5F1F4F08C060817181072E000C880B4D
:101B5000990B0E5F1F4FF32DFF763F2E97FF09C0A5
:101B600090958095709561957F4F8F4F9F4FF0684E
:101B70003F2E2AE030E0A3010E94E30E882E861853
:101B800045C0853731F4232D2F7EB22E2AE030E078
:101B900025C0932D997FB92E8F36C1F018F4883562
:101BA00079F0B5C0803719F0883721F0B0C0E92F3F
:101BB000E061BE2EB4FE0DC0FB2DF460BF2E09C047
:101BC00034FE0AC0292F2660B22E06C028E030E07D
:101BD00005C020E130E002C020E132E0F801B7FEAC
:101BE00007C060817181828193810C5F1F4F06C0A5
:101BF0006081718180E090E00E5F1F4FA3010E9421
:101C0000E30E882E8618FB2DFF773F2E36FE0DC083
:101C1000232D2E7FA22E891458F434FE0BC032FCE3
:101C200009C0832D8E7EA82E05C0B82CA32C03C01E
:101C3000B82C01C0B92CA4FE0FC0FE01E80DF11DA7
:101C40008081803321F49A2D997EA92E09C0A2FEAD
:101C500006C0B394B39404C08A2D867809F0B39477
:101C6000A3FC11C0A0FE06C0B21488F4280C922C6C
:101C70009B180EC0B21460F4B60180E290E00E949E
:101C8000A70EB394F7CFB21418F42B1802C0982CF7
:101C9000212CA4FE10C0B60180E390E00E94A70EA4
:101CA000A2FE17C0A1FC03C088E790E002C088E54F
:101CB00090E0B6010CC08A2D867859F0A1FE02C0D2
:101CC0008BE201C080E2A7FC8DE2B60190E00E94A9
:101CD000A70E891438F4B60180E390E00E94A70EA5
:101CE0009A94F7CF8A94F301E80DF11D8081B60133
:101CF00090E00E94A70E8110F5CF222009F442CE79
:101D0000B60180E290E00E94A70E2A94F6CFF60179
:101D10008681978102C08FEF9FEF2B96E2E10C94B2
:101D20005D0FFC010590615070400110D8F780955F
:101D300090958E0F9F1F0895FC0161507040019097
:101D40000110D8F7809590958E0F9F1F08950F93DF
:101D50001F93CF93DF93FB01238121FD03C08FEFFE
:101D60009FEF2CC022FF16C0468157812481358108
:101D70004217530744F4A081B1819D012F5F3F4F6B
:101D8000318320838C93268137812F5F3F4F3783A8
:101D9000268314C08B01EC01FB010084F185E02D4A
:101DA0000995892BE1F6D80116968D919C9117978C
:101DB000019617969C938E931697CE01DF91CF9143
:101DC0001F910F910895FA01AA27283051F120316F
:101DD00081F1E8946F936E7F6E5F7F4F8F4F9F4FBF
:101DE000AF4FB1E03ED0B4E03CD0670F781F891F01
:101DF0009A1FA11D680F791F8A1F911DA11D6A0FCF
:101E0000711D811D911DA11D20D009F468943F9181
:101E10002AE0269F11243019305D3193DEF6CF0180
:101E20000895462F4770405D4193B3E00FD0C9F746
:101E3000F6CF462F4F70405D4A3318F0495D31FDB3
:101E40004052419302D0A9F7EACFB4E0A695979506
:101E5000879577956795BA95C9F7009761057105DC
:101E600008959B01AC010A2E069457954795379526
:101E70002795BA95C9F7620F731F841F951FA01D80
:101E800008952F923F924F925F926F927F928F921E
:101E90009F92AF92BF92CF92DF92EF92FF920F93F9
:101EA0001F93CF93DF93CDB7DEB7CA1BDB0B0FB603
:101EB000F894DEBF0FBECDBF09942A8839884888C0
:101EC0005F846E847D848C849B84AA84B984C88456
:101ED000DF80EE80FD800C811B81AA81B981CE0F4D
:101EE000D11D0FB6F894DEBF0FBECDBFED01089532
:041EF000F894FFCF94
:101EF40000000000000F0F00000000000F00000FA2
:101F0400000000000F00000F000000000F000F0091
:101F1400000000000F00000F000000000F0F0F0072
:101F2400F0F0F0F00F00000FF0F0F0F00F00000FF1
:101F3400F00000F00F00000FF00000000F00000F91
:101F4400F00000F000000000F0F0F0000F0F0F00B0
:101F5400F00000F000000000F000000000000000AD
:101F6400F0F0F0F000000000F0F0F0F000000000ED
:101F740000000000F00000F00000000000F0F0F0AD
:101F840000000000F00000F00000000000F000007D
:101F940000000000F0F0F0F00000000000F0F0F0AD
:101FA4000F0F0F0FF00000F00F0000000FF0000003
:101FB4000F00000FF00000F00F0000000FF0F0F031
:101FC4000F000F0FF0F0F0F00F000F000F000000F3
:101FD4000F000000000000000F000F000F000000C1
:101FE4000F0F0F0F000000000F0F000F0F00000075
:101FF40000000003000000008109B9090000017D10
:102004004545390010387C3810007D2111217D00B0
:102014000100FF0100FF00000000000000000003B9
:102024000707030C000C070404030404000404035E
:10203400030304000300040000000503000004047B
:102044000400040504000403040404040003000061
:102054000300040004000300030004000000000067
:102064000400040003000304040404000004040343
:102074000400000404040000000003000004050040
:102084000400000000030300000004030300000038
:102094000400040404040A00000004030404040407
:1020A40004000305000400000404030E0000030000
:1020B4000300000004040000040004000400040001
:1020C40004000000030404030400030004000400EB
:1020D40004040404000300000000040004050400D8
:1020E4000400000300000400000004000A040403C8
:1020F40004050004000004030400000404000000BC
:1021040004040404000400000004030004000000AC
:1021140003000003000300030003000004000000A8
:10212400040000030004000003030005043F065BF1
:082134004F666D7D077F6F000F
:00000001FF
